:100000008BC00000A5C00000A3C00000A1C000007C
:100010009FC000009DC000009BC0000099C0000070
:1000200097C0000095C0000093C00000E0C200002F
:100030008FC0000001C700008BC00000D8C60000C0
:1000400087C0000085C0000083C0000081C00000A0
:100050007FC000007DC000007BC0000079C00000B0
:1000600077C0000075C0000073C0000071C00000C0
:100070006FC00000C003E003C404E003C404220412
:100080004404C4049604A80414034C0069006700E7
:10009000680074007000610063006B0000003203B0
:1000A00057006F006F00640065006E007300680009
:1000B000610072006B0020004C004C004300000007
:1000C0000403090409022200010100C0FA09040026
:1000D0000001030000000921110100012220000796
:1000E0000581030800051201100100000040501DA9
:1000F000226001000102DC010600FF0901A10109E3
:1001000002150025FF750895408102090315002599
:10011000FF750895409102C011241FBECFEFD2E0B9
:10012000DEBFCDBF11E0A0E0B1E0EEEFF5E102C02F
:1001300005900D92A831B107D9F711E0A8E1B1E01F
:1001400001C01D92AB3CB107E1F794D60C94FD0AB7
:1001500057CFCF92DF92EF92FF920F931F93CF93DF
:10016000DF937C018B01EA01CCD1811131C0209752
:1001700031F088819981081B190BE80EF91EC12CFA
:10018000D12C0115110519F18091E80085FD14C0ED
:100190008091E8008E778093E8000FD4209741F09B
:1001A000888199818C0D9D1D9983888385E010C07D
:1001B000A8D1882331F30CC0F70181917F0180938E
:1001C000F10001501109FFEFCF1ADF0ADACF80E00A
:1001D000DF91CF911F910F91FF90EF90DF90CF9023
:1001E000089520918801309189012617370748F03A
:1001F0006115710539F42091E8002E772093E8000D
:1002000001C0B90120E061157105D9F1309181017A
:10021000332309F442C0353009F441C03091E8007D
:1002200033FD39C03091E80032FF06C08091E8000C
:1002300082FF2AC080E008953091E80030FFE3CFCC
:100240002091F20030E0FC01281B390BCF01820F16
:10025000931F6115710549F08034910530F4819147
:100260008093F10061507109F1CF21E08034910554
:1002700009F020E08091E8008E778093E800CF01BC
:10028000C2CF2111C3CFD2CF80918101882329F021
:10029000853061F604C081E0089582E0089583E02E
:1002A00008956115710529F42091E8002B772093BA
:1002B000E8006115710521F120918101222349F1A6
:1002C000253049F12091E80023FD1FC02091E8006E
:1002D00022FFF2CFFC01CF012091F200222321F373
:1002E0008091F1008193CF01615071096115710511
:1002F00091F7DACF80918101882359F0853059F048
:100300008091E80080FFF6CF02C081E0089580E090
:10031000089582E0089583E0089520918801309146
:1003200089012617370748F06115710539F42091C6
:10033000E8002E772093E80001C0B90120E06115A4
:10034000710509F43CC030918101332309F443C0A5
:10035000353009F442C03091E80033FD3AC03091A5
:10036000E80032FF06C08091E80082FF2BC080E0E9
:1003700008953091E80030FFE2CF2091F20030E0A4
:10038000FC01281B390BC9018E0F9F1F61157105D8
:1003900051F08034910538F484918093F1003196C6
:1003A00061507109F0CF21E08034910509F020E01F
:1003B0008091E8008E778093E800CF01C0CF2111B3
:1003C000C2CFD1CF80918101882329F0853059F6A1
:1003D00004C081E0089582E0089583E00895982F95
:1003E000953058F59093E900981739F07091EC002A
:1003F0002091ED005091F00003C0242F762F50E0A3
:1004000021FF19C03091EB003E7F3093EB0030911B
:10041000ED003D7F3093ED003091EB003160309383
:10042000EB007093EC002093ED005093F0002091CE
:10043000EE0027FF07C09F5FD3CF8F708093E90046
:1004400081E0089580E008950F931F93CF93DF9389
:10045000062FEC0110E0101769F19881992339F10A
:100460002C81E981FA816B81892F8F70853010F0A2
:1004700080E021C0223010F056E001C052E028E0B8
:1004800030E040E02E173F0720F44F5F220F331F6C
:10049000F9CF4295407F452B991F9927991F629567
:1004A000660F660F607C692B9ADF882309F31F5F54
:1004B0002596D1CF81E0DF91CF911F910F910895C3
:1004C0008091820187FD05C08091E80080FF0EC009
:1004D00012C08091E80082FD05C0809181018111E8
:1004E000F8CF08958091E8008B7708C08091810152
:1004F0008111EACF08958091E8008E778093E8001B
:1005000008958091E4009091E50045E62091EC008B
:1005100020FF21C02091E80020FD21C02091810111
:10052000222389F0253089F02091EB0025FD0FC0B2
:100530002091E4003091E5002817390739F3415044
:1005400041F0C901E3CF82E0089583E0089581E09E
:10055000089584E008952091E80022FFDFCF80E035
:1005600008953FD041D08091D8008F778093D800F4
:100570008091D80080688093D8008091D8008F7DCA
:100580008093D80084E089BD86E089BD09B400FE6F
:10059000FDCF1092810110927E0110927F0142E303
:1005A00060E080E01CDF8091E1008E7F8093E100BD
:1005B0008091E20081608093E2008091E200886097
:1005C0008093E2008091E0008E7F8093E0000895A8
:1005D000E3E6F0E080818E7F808381E0809380017C
:1005E000C0CF1092E20008951092E10008951F928A
:1005F0000F920FB60F9211242F933F934F935F9357
:100600006F937F938F939F93AF93BF93EF93FF93DA
:100610008091E10082FF0AC08091E20082FF06C063
:100620008091E1008B7F8093E100C6D68091E1004C
:1006300080FF17C08091E20080FF13C08091E2002C
:100640008E7F8093E2008091E20080618093E200DF
:100650008091D80080628093D80019BC10928101EB
:10066000A1D68091E10084FF2DC08091E20084FF3B
:1006700029C084E089BD86E089BD09B400FEFDCFB4
:100680008091D8008F7D8093D8008091E1008F7E8B
:100690008093E1008091E2008F7E8093E200809160
:1006A000E20081608093E20080917E01811104C0AC
:1006B0008091E30087FF02C084E001C081E0809365
:1006C00081016FD68091E10083FF22C08091E2001A
:1006D00083FF1EC08091E100877F8093E10082E06C
:1006E0008093810110927E018091E1008E7F809342
:1006F000E1008091E2008E7F8093E2008091E20031
:1007000080618093E20042E360E080E068DE54D1E3
:10071000FF91EF91BF91AF919F918F917F916F91D9
:100720005F914F913F912F910F900FBE0F901F90AF
:1007300018951F93CF93DF93CDB7DEB7AA970FB667
:10074000F894DEBF0FBECDBFE2E8F1E08091F1008A
:10075000819321E0EA38F207C9F704D78091E800D5
:1007600083FF12C12091820130918301832F90E099
:100770008A30910508F008C1FC01E65CFF4F1AC7FA
:10078000203881F0223809F0FFC0809186018F70F7
:100790008093E9008091EB0085FB882780F9109217
:1007A000E90004C080917F01811182E09091E8000E
:1007B000977F9093E8008093F1001092F100C1C000
:1007C000822F8D7F09F0E0C0222319F0223061F0E2
:1007D000DBC080918401813009F0D6C0333009F04C
:1007E00080E080937F0128C080918401811124C022
:1007F000209186012F7009F4C7C02093E9008091F1
:10080000EB0080FF19C08091EB00333011F480625F
:1008100011C080618093EB0081E090E0022E01C066
:10082000880F0A94EAF78093EA001092EA00809118
:10083000EB0088608093EB001092E9008091E80063
:10084000877F82C02111A0C0109184011F77809101
:10085000E3008078812B8093E3008091E800877F1C
:100860008093E8002DDE8091E80080FFFCCF80912E
:10087000E30080688093E300112311F083E001C05E
:1008800082E08093810180C02058223008F07CC033
:1008900080918401909185018C3D23E0920771F550
:1008A00083E08A838AE289834FB7F894DE01139646
:1008B00020E03EE051E2E32FF0E050935700E49156
:1008C00020FF03C0E295EF703F5FEF708E2F90E046
:1008D000EA3010F0C79601C0C0968D939D932F5FAC
:1008E000243149F74FBF8091E800877F8093E8006B
:1008F0006AE270E0CE01019674DC12C0AE014F5F77
:100900005F4F6091860159D3009709F43DC0209153
:10091000E800277F2093E800BC0189819A81FDDCF3
:100920008091E8008B778093E8002EC0203861F535
:100930008091E800877F8093E80080917E0180931A
:10094000F1008091E8008E778093E800B9DD1CC04B
:1009500021111AC0909184019230B0F48091E80086
:10096000877F8093E80090937E01AADD80917E01CD
:10097000811104C08091E30087FF02C084E001C0C0
:1009800081E0809381010FD58091E80083FF0AC048
:100990008091E800877F8093E8008091EB0080627F
:1009A0008093EB00AA960FB6F894DEBF0FBECDBFC2
:1009B000DF91CF911F9108950895CF938091810188
:1009C0008823A9F08091E9008F709091EC0090FF4E
:1009D00002C090E801C090E0C92FC82B1092E90036
:1009E0008091E80083FDA5DECF70C093E900CF9130
:1009F00008956F927F928F929F92AF92BF92CF9203
:100A0000DF92EF92FF920F931F93CF93DF9300D06B
:100A10001F92CDB7DEB77C01ADB6BEB68091E800BF
:100A200083FFFEC0F701808190E020918601309124
:100A300087012817390709F0F3C0809183018330BB
:100A400009F495C030F4813071F0823009F4CCC0E3
:100A5000E7C08A3009F4B0C08B3009F499C08930FE
:100A600009F0DEC047C080918201813A09F0D8C008
:100A70008DB69EB61A8219828091840110918501EB
:100A80008B83F701408550E08DB79EB7841B950B93
:100A90000FB6F8949EBF0FBE8DBFEDB7FEB731966F
:100AA0006F0160E070E0CF01A1D54FEF410F8E01E3
:100AB0000F5F1F4F9601BE016D5F7F4FC70188D446
:100AC000F70186819781009721F0408550E0B601BB
:100AD00084D51092E9008091E800877F8093E80038
:100AE00069817A81C6017DDB8091E8008B778093F4
:100AF000E80037C080918201813209F091C08DB643
:100B00009EB60091880110918901709084016090D7
:100B100085018DB79EB7801B910B0FB6F8949EBFD1
:100B20000FBE8DBFEDB7FEB731966F018091E80023
:100B3000877F8093E800B801CF01B3DB8091E800A4
:100B40008E778093E80021E0711001C020E030E052
:100B5000021B130B2C0D3D1D4FEF460D672DC701DA
:100B600048D40FB6F8949EBE0FBE8DBE59C080917A
:100B70008201813A09F054C08091E800877F809318
:100B8000E8008091E80080FFFCCFF701818540C03C
:100B900080918201813209F043C08091E800877F13
:100BA0008093E8008DDC9091840181E0911101C077
:100BB00080E0F701818734C080918201813281F524
:100BC0008091E800877F8093E8007ADC809184013F
:100BD00090918501882736E0969587953A95E1F7BB
:100BE000F701958784871CC080918201813AC1F406
:100BF0008091E800877F8093E8008091E80080FF83
:100C0000FCCFF70184859585969587959695879570
:100C10008093F1008091E8008E778093E80050DCAB
:100C20000FB6F894BEBE0FBEADBE0F900F900F90E2
:100C3000DF91CF911F910F91FF90EF90DF90CF90B8
:100C4000BF90AF909F908F907F906F900895FC0120
:100C5000399627E0DF011D922A95E9F721E0FC0192
:100C6000218724EF31E03587248723E0248361E066
:100C70000196EACB5F926F927F928F929F92AF9292
:100C8000BF92CF92DF92EF92FF920F931F93CF9379
:100C9000DF9300D01F92CDB7DEB77C01ADB6BEB6F4
:100CA00080918101843009F08AC08091E4009091A4
:100CB000E500F701228533852817390709F47FC03D
:100CC00081818F708093E9008091E80085FF77C073
:100CD0008DB69EB6408550E08DB79EB7841B950BB0
:100CE0000FB6F8949EBF0FBE8DBFEDB7FEB731961D
:100CF0006F011B821A82198260E070E0CF0176D406
:100D00008E010F5F1F4F960140E0BE016D5F7F4F68
:100D1000C7015ED3682EF70184859585892B41F044
:100D200021E086859785892B09F020E0722E01C08D
:100D3000712CF701068117810115110589F0498190
:100D40005A81B801C6013CD455245394892B09F427
:100D5000512CF701408550E0B601C8013ED401C0D6
:100D6000512C29813A81232BF1F0611004C05110DC
:100D700002C070FE18C0F701848595859787868725
:100D800081818F708093E9008B8181118093F100C4
:100D900069817A8140E050E0C601DBD98091E800AA
:100DA0008E778093E8008091E4009091E500F70150
:100DB000938782870FB6F8949EBE0FBE8DBE0FB686
:100DC000F894BEBE0FBEADBE0F900F900F90DF9196
:100DD000CF911F910F91FF90EF90DF90CF90BF9038
:100DE000AF909F908F907F906F905F9008951F922B
:100DF0000F920FB60F9211242F933F934F935F934F
:100E00006F937F938F939F93AF93BF93EF93FF93D2
:100E10007DD282E086BBFF91EF91BF91AF919F9110
:100E20008F917F916F915F914F913F912F910F9093
:100E30000FBE0F901F9018951F920F920FB60F9232
:100E4000112483E0459A98E2EFE9FFE03197F1F74A
:100E500000C000009150C1F7459898E2EFE9FFE02B
:100E60003197F1F700C000009150C1F7815051F760
:100E7000459AFFCFA8952CE088E190E00FB6F89452
:100E8000A895809360000FBE209360008091600061
:100E900080648093600090E080E80FB6F8948093BF
:100EA0006100909361000FBE88EF84B915B88CEF94
:100EB00087B918B88FEF8AB91BB83D9A459884E670
:100EC00090E054E6652F681B459840E0242F30E001
:100ED000281739074CF4E7ECF0E03197F1F700C040
:100EE0000000A8954F5FF2CF459A20E0261749F001
:100EF000E7ECF0E03197F1F700C00000A8952F5F14
:100F0000F5CF01970097F1F6F8D01092800010927B
:100F100082001092810080910401909105019093CC
:100F200089008093880082E080936F0081E0809345
:100F3000810010928500109284004ADB7894C2E010
:100F4000A8952BD280918101843029F040E060E0A7
:100F500080E0DCD00FC08FB7F89490917C018FBFF8
:100F60002FB7F89480917C018D7F80937C012FBFF7
:100F700091FDECCF8FB7F89490917C018FBF2FB784
:100F8000F89480917C018B7F80937C012FBF92FF2E
:100F9000D7CF80916F008D7F80936F008091040187
:100FA00090910501909389008093880010928500AC
:100FB00010928400C0936F00C3CF292F33272330B2
:100FC0003105B9F05CF42130310569F12230310589
:100FD00079F582E290E024EC30E02EC02132310538
:100FE000E9F02232310521F580E290E028EF30E08F
:100FF00023C099278130910541F08230910541F05D
:10100000892BB1F4E0ECF0E005C0EEE9F0E002C0BD
:10101000E8E8F0E0849190E09F010EC089E090E064
:1010200026ED30E009C082E190E026EE30E004C019
:1010300080E090E020E030E0FA01318320830895E1
:101040008EBD0DB407FEFDCF0895289A2898089507
:10105000FF920F931F93CF93DF93F62E8A01382FC1
:10106000E1E0F0E0C0E0D0E03F1510F5832F90E024
:1010700063E070E07AD2D801A80FB91F8C912817CD
:1010800010F4CE2BDF2BEE0FFF1F11968C911197D2
:10109000281710F4CE2BDF2BEE0FFF1F12968C912A
:1010A000281710F4CE2BDF2BEE0FFF1F3F5FDCCF96
:1010B0008D2FC6DF8C2FDF91CF911F910F91FF9065
:1010C000BFCF1F93CF93DF93EC01162F262FAC01D8
:1010D0006AE085E0BDDF212FAE0165E080E0B8DF8A
:1010E000DF91CF911F91B1CF80E0AADF80E0A8DF30
:1010F00080E0A6DF80E0A4DFA8CF219A229A209A80
:10110000289881E08DBD80E58CBDEECFE6E5F1E06D
:10111000DF01DE978C93DF01DD976C93DF01DC97B5
:101120004C93DF0190978C93DF015F976C93DF0105
:101130005E974C93DF0112978C93DF0111976C93AC
:101140004083339691E0E437F90711F708952F9221
:101150003F924F925F926F927F928F929F92AF9247
:10116000BF92CF92DF92EF92FF920F931F93CF9394
:10117000DF93CDB7DEB729970FB6F894DEBF0FBE69
:10118000CDBF409101014B83E42FF0E0FD83EC8360
:10119000E2E7F1E0FF83EE8394E5E92E91E0F92E9A
:1011A00008E111E026E331E0E5E5F1E0F987E887C1
:1011B00049E1642E41E0742E57E3452E51E0552E4F
:1011C00066E5262E61E0362EEAE1F1E0FA83E98356
:1011D00078E3872E71E0972EEE81FF814081FB81BD
:1011E0004F17A8F0D7018C91F8018083D9018C9317
:1011F000E885F9858081D3018C93F2018083D10148
:101200008C91E981FA818083D4018C933EC0942F24
:1012100080E06C817D81BAD1DB01C12CDD24D394C7
:10122000C61AD70AF801608170E0C6019ED15C0140
:10123000F701608170E0CD0198D1A80EB91EF901C7
:10124000B082F301608170E0C6018FD15C01E88556
:10125000F985608170E0CD0188D1A80EB91EF20138
:10126000B082E981FA81608170E0C6017ED16C01B3
:10127000F101608170E0CD0178D1C80ED91ED40192
:10128000DC924F5FEE81FF814083EE81FF813196DA
:10129000FF83EE83F3E0EF0EF11C0D5F1F4F2D5F18
:1012A0003F4FE885F9853396F987E887F3E06F0EBD
:1012B000711C43E0440E511C83E0280E311CE9816F
:1012C000FA813396FA83E983F3E08F0E911CEE8165
:1012D000FF81EC57F14009F07FCF29960FB6F894C3
:1012E000DEBF0FBECDBFDF91CF911F910F91FF9059
:1012F000EF90DF90CF90BF90AF909F908F907F90B6
:101300006F905F904F903F902F90089590917D0146
:1013100080910301981749F080910001882329F1F9
:1013200060917D0186E391E024C010927D011092CE
:10133000850010928400D8DE80910001811107DFC2
:101340008091020190E0A0E0B0E0BA2FA92F982F81
:101350008827409184005091850060E070E0481734
:1013600059076A077B07A8F3D7CF60917D0184E511
:1013700091E0A7DE80917D018F5F80937D011092C7
:1013800085001092840008959FB7F89420917C0105
:10139000822B80937C019FBF089587E091E06ADCF7
:1013A0000CCB0895089587E091E051DCE2EEF0E087
:1013B0008081846080830895809115019091160149
:1013C000009729F0019790931601809315010895D5
:1013D0000F931F93F90188E090E0D8018D939C93BF
:1013E00085E0818386E0828381E085831F910F9170
:1013F0000895CF92DF92EF92FF920F931F93CF93B6
:10140000DF93E9018881843009F48DC0D0F4823003
:1014100009F473C008F073C0813009F09AC088E005
:10142000B3DF38E1C32E31E0D32E29E131E084E58A
:1014300091E0E5E5F1E0239666E571E042E751E0F1
:1014400009C0863009F479C008F471C0813809F404
:1014500078C07FC08F010F511109D8011C91D601AE
:101460001C938F010E511109D8011C91D9011C93B5
:101470008F010D511109D801FC908F010B531109F7
:10148000D801FC928E0102501109D8011C91DC0197
:101490001C938E0101501109D8011C9110831881F1
:1014A000DB011C93D601EC90DC010C91E01207C02B
:1014B000D901EC900081E01202C0F11611F0DA01BE
:1014C0001C92B3E0CB0ED11C2D5F3F4F0396339699
:1014D00026966D5F7F4F4F5F5F4FA6E3CA16A1E070
:1014E000DA0609F0B7CF9FB7F89480917C01877F27
:1014F00080937C019FBF81E00DC082E00BC08A8198
:1015000090E0982F88272981822B90930501809362
:10151000040184E0DF91CF911F910F91FF90EF9034
:10152000DF90CF9031CF89818093030112C08981F0
:1015300080930001809301010CC089818093020196
:1015400008C0898180930601882311F0459A01C063
:101550004598DF91CF911F910F91FF90EF90DF9011
:10156000CF90089587E091E044CA0024552704C035
:10157000080E591F880F991F009729F076956795D7
:10158000B8F37105B9F7802D952F0895AA1BBB1BE1
:1015900051E107C0AA1FBB1FA617B70710F0A61B73
:1015A000B70B881F991F5A95A9F780959095BC0194
:1015B000CD010895EE0FFF1F0590F491E02D0994E1
:1015C000FB01DC0104C08D910190801921F4415090
:1015D0005040C8F7881B990B0895FB01DC0102C03D
:1015E00001900D9241505040D8F70895DC0101C0A0
:0E15F0006D9341505040E0F70895F894FFCFFE
:1015FE00016432806400010081080000018B01400B
:08160E000000000000000000D4
:00000001FF
