:100000008BC00000A5C00000A3C00000A1C000007C
:100010009FC000009DC000009BC0000099C0000070
:1000200097C0000095C0000093C00000E0C200002F
:100030008FC0000001C700008BC00000D8C60000C0
:1000400087C0000085C0000083C0000081C00000A0
:100050007FC000007DC000007BC0000079C00000B0
:1000600077C0000075C0000073C0000071C00000C0
:100070006FC00000C003E003C404E003C404220412
:100080004404C4049604A80414034C0069006700E7
:10009000680074007000610063006B0000003203B0
:1000A00057006F006F00640065006E007300680009
:1000B000610072006B0020004C004C004300000007
:1000C0000403090409022200010100C0FA09040026
:1000D0000001030000000921110100012220000796
:1000E0000581030800051201100100000040501DA9
:1000F000226001000102DC010600FF0901A10109E3
:1001000002150025FF750895408102090315002599
:10011000FF750895409102C011241FBECFEFD2E0B9
:10012000DEBFCDBF11E0A0E0B1E0E8EAF7E102C038
:1001300005900D92A831B107D9F712E0A8E1B1E01E
:1001400001C01D92A432B107E1F794D60C94D20BF2
:1001500057CFCF92DF92EF92FF920F931F93CF93DF
:10016000DF937C018B01EA01CCD1811131C0209752
:1001700031F088819981081B190BE80EF91EC12CFA
:10018000D12C0115110519F18091E80085FD14C0ED
:100190008091E8008E778093E8000FD4209741F09B
:1001A000888199818C0D9D1D9983888385E010C07D
:1001B000A8D1882331F30CC0F70181917F0180938E
:1001C000F10001501109FFEFCF1ADF0ADACF80E00A
:1001D000DF91CF911F910F91FF90EF90DF90CF9023
:1001E00008952091E1013091E2012617370748F088
:1001F0006115710539F42091E8002E772093E8000D
:1002000001C0B90120E061157105D9F13091DA0121
:10021000332309F442C0353009F441C03091E8007D
:1002200033FD39C03091E80032FF06C08091E8000C
:1002300082FF2AC080E008953091E80030FFE3CFCC
:100240002091F20030E0FC01281B390BCF01820F16
:10025000931F6115710549F08034910530F4819147
:100260008093F10061507109F1CF21E08034910554
:1002700009F020E08091E8008E778093E800CF01BC
:10028000C2CF2111C3CFD2CF8091DA01882329F0C8
:10029000853061F604C081E0089582E0089583E02E
:1002A00008956115710529F42091E8002B772093BA
:1002B000E8006115710521F12091DA01222349F14D
:1002C000253049F12091E80023FD1FC02091E8006E
:1002D00022FFF2CFFC01CF012091F200222321F373
:1002E0008091F1008193CF01615071096115710511
:1002F00091F7DACF8091DA01882359F0853059F0EF
:100300008091E80080FFF6CF02C081E0089580E090
:10031000089582E0089583E008952091E1013091ED
:10032000E2012617370748F06115710539F420916D
:10033000E8002E772093E80001C0B90120E06115A4
:10034000710509F43CC03091DA01332309F443C04C
:10035000353009F442C03091E80033FD3AC03091A5
:10036000E80032FF06C08091E80082FF2BC080E0E9
:1003700008953091E80030FFE2CF2091F20030E0A4
:10038000FC01281B390BC9018E0F9F1F61157105D8
:1003900051F08034910538F484918093F1003196C6
:1003A00061507109F0CF21E08034910509F020E01F
:1003B0008091E8008E778093E800CF01C0CF2111B3
:1003C000C2CFD1CF8091DA01882329F0853059F648
:1003D00004C081E0089582E0089583E00895982F95
:1003E000953058F59093E900981739F07091EC002A
:1003F0002091ED005091F00003C0242F762F50E0A3
:1004000021FF19C03091EB003E7F3093EB0030911B
:10041000ED003D7F3093ED003091EB003160309383
:10042000EB007093EC002093ED005093F0002091CE
:10043000EE0027FF07C09F5FD3CF8F708093E90046
:1004400081E0089580E008950F931F93CF93DF9389
:10045000062FEC0110E0101769F19881992339F10A
:100460002C81E981FA816B81892F8F70853010F0A2
:1004700080E021C0223010F056E001C052E028E0B8
:1004800030E040E02E173F0720F44F5F220F331F6C
:10049000F9CF4295407F452B991F9927991F629567
:1004A000660F660F607C692B9ADF882309F31F5F54
:1004B0002596D1CF81E0DF91CF911F910F910895C3
:1004C0008091DB0187FD05C08091E80080FF0EC0B0
:1004D00012C08091E80082FD05C08091DA0181118F
:1004E000F8CF08958091E8008B7708C08091DA01F9
:1004F0008111EACF08958091E8008E778093E8001B
:1005000008958091E4009091E50045E62091EC008B
:1005100020FF21C02091E80020FD21C02091DA01B8
:10052000222389F0253089F02091EB0025FD0FC0B2
:100530002091E4003091E5002817390739F3415044
:1005400041F0C901E3CF82E0089583E0089581E09E
:10055000089584E008952091E80022FFDFCF80E035
:1005600008953FD041D08091D8008F778093D800F4
:100570008091D80080688093D8008091D8008F7DCA
:100580008093D80084E089BD86E089BD09B400FE6F
:10059000FDCF1092DA011092D7011092D80142E3F8
:1005A00060E080E01CDF8091E1008E7F8093E100BD
:1005B0008091E20081608093E2008091E200886097
:1005C0008093E2008091E0008E7F8093E0000895A8
:1005D000E3E6F0E080818E7F808381E08093D90123
:1005E000C0CF1092E20008951092E10008951F928A
:1005F0000F920FB60F9211242F933F934F935F9357
:100600006F937F938F939F93AF93BF93EF93FF93DA
:100610008091E10082FF0AC08091E20082FF06C063
:100620008091E1008B7F8093E100D8D68091E1003A
:1006300080FF17C08091E20080FF13C08091E2002C
:100640008E7F8093E2008091E20080618093E200DF
:100650008091D80080628093D80019BC1092DA0192
:10066000B3D68091E10084FF2DC08091E20084FF29
:1006700029C084E089BD86E089BD09B400FEFDCFB4
:100680008091D8008F7D8093D8008091E1008F7E8B
:100690008093E1008091E2008F7E8093E200809160
:1006A000E20081608093E2008091D701811104C053
:1006B0008091E30087FF02C084E001C081E0809365
:1006C000DA0181D68091E10083FF22C08091E200AF
:1006D00083FF1EC08091E100877F8093E10082E06C
:1006E0008093DA011092D7018091E1008E7F809390
:1006F000E1008091E2008E7F8093E2008091E20031
:1007000080618093E20042E360E080E068DE54D1E3
:10071000FF91EF91BF91AF919F918F917F916F91D9
:100720005F914F913F912F910F900FBE0F901F90AF
:1007300018951F93CF93DF93CDB7DEB7AA970FB667
:10074000F894DEBF0FBECDBFEBEDF1E08091F1007C
:10075000819321E0E33EF207C9F75AD78091E80080
:1007600083FF12C12091DB013091DC01832F90E0E7
:100770008A30910508F008C1FC01E65CFF4FC1C753
:10078000203881F0223809F0FFC08091DF018F709E
:100790008093E9008091EB0085FB882780F9109217
:1007A000E90004C08091D801811182E09091E800B5
:1007B000977F9093E8008093F1001092F100C1C000
:1007C000822F8D7F09F0E0C0222319F0223061F0E2
:1007D000DBC08091DD01813009F0D6C0333009F0F3
:1007E00080E08093D80128C08091DD01811124C070
:1007F0002091DF012F7009F4C7C02093E900809198
:10080000EB0080FF19C08091EB00333011F480625F
:1008100011C080618093EB0081E090E0022E01C066
:10082000880F0A94EAF78093EA001092EA00809118
:10083000EB0088608093EB001092E9008091E80063
:10084000877F82C02111A0C01091DD011F778091A8
:10085000E3008078812B8093E3008091E800877F1C
:100860008093E8002DDE8091E80080FFFCCF80912E
:10087000E30080688093E300112311F083E001C05E
:1008800082E08093DA0180C02058223008F07CC0DA
:100890008091DD019091DE018C3D23E0920771F59E
:1008A00083E08A838AE289834FB7F894DE01139646
:1008B00020E03EE051E2E32FF0E050935700E49156
:1008C00020FF03C0E295EF703F5FEF708E2F90E046
:1008D000EA3010F0C79601C0C0968D939D932F5FAC
:1008E000243149F74FBF8091E800877F8093E8006B
:1008F0006AE270E0CE01019674DC12C0AE014F5F77
:100900005F4F6091DF0159D3009709F43DC02091FA
:10091000E800277F2093E800BC0189819A81FDDCF3
:100920008091E8008B778093E8002EC0203861F535
:100930008091E800877F8093E8008091D7018093C1
:10094000F1008091E8008E778093E800B9DD1CC04B
:1009500021111AC09091DD019230B0F48091E8002D
:10096000877F8093E8009093D701AADD8091D7011B
:10097000811104C08091E30087FF02C084E001C0C0
:1009800081E08093DA0121D58091E80083FF0AC0DD
:100990008091E800877F8093E8008091EB0080627F
:1009A0008093EB00AA960FB6F894DEBF0FBECDBFC2
:1009B000DF91CF911F9108950895CF938091DA012F
:1009C0008823A9F08091E9008F709091EC0090FF4E
:1009D00002C090E801C090E0C92FC82B1092E90036
:1009E0008091E80083FDA5DECF70C093E900CF9130
:1009F00008956F927F928F929F92AF92BF92CF9203
:100A0000DF92EF92FF920F931F93CF93DF9300D06B
:100A10001F92CDB7DEB77C01ADB6BEB68091E800BF
:100A200083FFFEC0F701808190E02091DF013091CB
:100A3000E0012817390709F0F3C08091DC01833009
:100A400009F495C030F4813071F0823009F4CCC0E3
:100A5000E7C08A3009F4B0C08B3009F499C08930FE
:100A600009F0DEC047C08091DB01813A09F0D8C0AF
:100A70008DB69EB61A8219828091DD011091DE0139
:100A80008B83F701408550E08DB79EB7841B950B93
:100A90000FB6F8949EBF0FBE8DBFEDB7FEB731966F
:100AA0006F0160E070E0CF0176D64FEF410F8E010D
:100AB0000F5F1F4F9601BE016D5F7F4FC7019AD434
:100AC000F70186819781009721F0408550E0B601BB
:100AD00059D61092E9008091E800877F8093E80062
:100AE00069817A81C6017DDB8091E8008B778093F4
:100AF000E80037C08091DB01813209F091C08DB6EA
:100B00009EB60091E1011091E2017090DD016090CC
:100B1000DE018DB79EB7801B910B0FB6F8949EBF78
:100B20000FBE8DBFEDB7FEB731966F018091E80023
:100B3000877F8093E800B801CF01B3DB8091E800A4
:100B40008E778093E80021E0711001C020E030E052
:100B5000021B130B2C0D3D1D4FEF460D672DC701DA
:100B60005AD40FB6F8949EBE0FBE8DBE59C0809168
:100B7000DB01813A09F054C08091E800877F8093BF
:100B8000E8008091E80080FFFCCFF701818540C03C
:100B90008091DB01813209F043C08091E800877FBA
:100BA0008093E8008DDC9091DD0181E0911101C01E
:100BB00080E0F701818734C08091DB01813281F5CB
:100BC0008091E800877F8093E8007ADC8091DD01E6
:100BD0009091DE01882736E0969587953A95E1F762
:100BE000F701958784871CC08091DB01813AC1F4AD
:100BF0008091E800877F8093E8008091E80080FF83
:100C0000FCCFF70184859585969587959695879570
:100C10008093F1008091E8008E778093E80050DCAB
:100C20000FB6F894BEBE0FBEADBE0F900F900F90E2
:100C3000DF91CF911F910F91FF90EF90DF90CF90B8
:100C4000BF90AF909F908F907F906F900895FC0120
:100C5000399627E0DF011D922A95E9F721E0FC0192
:100C6000218724EF31E03587248723E0248361E066
:100C70000196EACB5F926F927F928F929F92AF9292
:100C8000BF92CF92DF92EF92FF920F931F93CF9379
:100C9000DF9300D01F92CDB7DEB77C01ADB6BEB6F4
:100CA0008091DA01843009F08AC08091E40090914B
:100CB000E500F701228533852817390709F47FC03D
:100CC00081818F708093E9008091E80085FF77C073
:100CD0008DB69EB6408550E08DB79EB7841B950BB0
:100CE0000FB6F8949EBF0FBE8DBFEDB7FEB731961D
:100CF0006F011B821A82198260E070E0CF014BD530
:100D00008E010F5F1F4F960140E0BE016D5F7F4F68
:100D1000C70170D3682EF70184859585892B41F032
:100D200021E086859785892B09F020E0722E01C08D
:100D3000712CF701068117810115110589F0498190
:100D40005A81B801C60111D555245394892B09F451
:100D5000512CF701408550E0B601C80113D501C000
:100D6000512C29813A81232BF1F0611004C05110DC
:100D700002C070FE18C0F701848595859787868725
:100D800081818F708093E9008B8181118093F100C4
:100D900069817A8140E050E0C601DBD98091E800AA
:100DA0008E778093E8008091E4009091E500F70150
:100DB000938782870FB6F8949EBE0FBE8DBE0FB686
:100DC000F894BEBE0FBEADBE0F900F900F90DF9196
:100DD000CF911F910F91FF90EF90DF90CF90BF9038
:100DE000AF909F908F907F906F905F9008951F922B
:100DF0000F920FB60F9211242F933F934F935F934F
:100E00006F937F938F939F93AF93BF93EF93FF93D2
:100E1000C2D282E086BBFF91EF91BF91AF919F91CB
:100E20008F917F916F915F914F913F912F910F9093
:100E30000FBE0F901F9018951F920F920FB60F9232
:100E4000112483E05C9A98E2EFE9FFE03197F1F733
:100E500000C000009150C1F75C9898E2EFE9FFE014
:100E60003197F1F700C000009150C1F7815051F760
:100E70005C9AFFCFA8952CE088E190E00FB6F8943B
:100E8000A895809360000FBE209360008091600061
:100E900080648093600090E080E80FB6F8948093BF
:100EA0006100909361000FBE88EF84B915B88CEF94
:100EB00087B918B88FEF8AB91BB8549A5C9884E642
:100EC00090E054E6652F681B5C9840E0242F30E0EA
:100ED000281739074CF4E7ECF0E03197F1F700C040
:100EE0000000A8954F5FF2CF5C9A20E0261749F0EA
:100EF000E7ECF0E03197F1F700C00000A8952F5F14
:100F0000F5CF01970097F1F6F1D010928000109282
:100F100082001092810080910401909105019093CC
:100F200089008093880082E080936F0081E0809345
:100F3000810010928500109284004ADB7894C2E010
:100F4000A8953DD28091DA01843029F040E060E03C
:100F500080E0D3D00FC08FB7F8949091D6018FBFA7
:100F60002FB7F8948091D6018D7F8093D6012FBF43
:100F700091FDECCF8FB7F8949091D6018FBF2FB72A
:100F8000F8948091D6018B7F8093D6012FBF92FF7A
:100F9000D7CF80916F008D7F80936F008091040187
:100FA00090910501909389008093880010928500AC
:100FB00010928400C0936F00C3CF292F33272330B2
:100FC0003105B9F05CF42130310569F12230310589
:100FD00079F582E290E024EC30E02EC02132310538
:100FE000E9F02232310521F580E290E028EF30E08F
:100FF00023C099278130910541F08230910541F05D
:10100000892BB1F4E0ECF0E005C0EEE9F0E002C0BD
:10101000E8E8F0E0849190E09F010EC089E090E064
:1010200026ED30E009C082E190E026EE30E004C019
:1010300080E090E020E030E0FA01318320830895E1
:101040002A982CE030E040E058E0BA016823792388
:10105000672B11F02A9A01C02A98299A2998569547
:101060004795215031092115310579F70895289ABE
:1010700028980895FF920F931F93CF93DF93F82E34
:10108000092F80E090E0DCDFCF2DD02F15E08AA182
:101090009BA1D6DF88A199A1D3DF8E8D9F8DD0DF54
:1010A000115026961111F3CF80E090E0C9DFCF2DCB
:1010B000D02F15E08C819D81C3DF8A819B81C0DFA9
:1010C00088819981BDDF115026961111F3CFDF91F0
:1010D000CF911F910F91FF90CACFCF93C0E180E0D5
:1010E00090E0AEDFC150D9F7CF91C1CF219A229ABB
:1010F000209A289829982A98F0CFCF93DF93E8E197
:10110000F1E0C4E5D1E0A0E9B1E090E070E050E0AA
:101110009183808373836283558344839983888317
:101120007B836A835D834C8311969C938E93139685
:101130007C936E93129715965C934E931497369604
:101140002696169621E0E435F20711F7DF91CF914C
:1011500008952F923F924F925F926F927F928F925B
:101160009F92AF92BF92CF92DF92EF92FF920F9336
:101170001F93CF93DF93CDB7DEB766970FB6F89482
:10118000DEBF0FBECDBF20910101288B822F90E0E2
:10119000A0E0B0E0898B9A8BAB8BBC8BACECB1E060
:1011A000BA87A987E0E9F1E0FE8BED8B08E111E059
:1011B00034E5232E31E0332EA985BA85BC91BB8757
:1011C000E889BE1728F1AD89BE898D919C91F801FF
:1011D00091838083D1018D939C93ED89FE898281D7
:1011E0009381D80113969C938E931297F101938368
:1011F0008283AD89BE8914968D919C911597F801D3
:1012000095838483D10115969C938E93149797C0F0
:10121000EB858E2F90E0A0E0B0E077276627298944
:101220003A894B895C89F7D129013A0180E090E045
:10123000A1E0B0E0821B930BA40BB50B8C879D87BC
:10124000AE87BF87D8012D913C9140E050E06C857E
:101250007D858E859F8503D249015A01ED89FE89DE
:101260002081318140E050E0C301B201F8D12983EF
:101270003A834B835C8389819A81AB81BC81880EE0
:10128000991EAA1EBB1ED101AD92BC92F80122810B
:10129000338140E050E06C857D858E859F85DFD170
:1012A00049015A01AD89BE8912962D913C9113973F
:1012B00040E050E0C301B201D2D129833A834B838D
:1012C0005C8389819A81AB81BC81880E991EAA1E9C
:1012D000BB1ED1011396BC92AE921297F8012481E5
:1012E000358140E050E06C857D858E859F85B7D146
:1012F00049015A01AD89BE8914962D913C911597EB
:1013000040E050E0C301B201AAD129833A834B8364
:101310005C836D837E838F83988789819A81AB817B
:10132000BC81880E991EAA1EBB1ED1011596BC92C7
:10133000AE9214978B858F5FE985FA8580838985C6
:101340009A8501969A878987AD89BE891696BE8B44
:10135000AD8B0A5F1F4FB6E02B0E311C865D9140AE
:1013600009F02ACF66960FB6F894DEBF0FBECDBF48
:10137000DF91CF911F910F91FF90EF90DF90CF9071
:10138000BF90AF909F908F907F906F905F904F90A5
:101390003F902F900895DDDE80910001882319F0A1
:1013A00084E591E002C080E991E064CE9FB7F894B3
:1013B0002091D601822B8093D6019FBF089587E0AC
:1013C00091E058DCFACA0895089587E091E03FDC87
:1013D000E2EEF0E0808184608083089580911501C1
:1013E00090911601009729F0019790931601809330
:1013F000150108950F931F93F90188E090E0D8013B
:101400008D939C9387E0818386E0828381E085834E
:101410001F910F9108958F929F92AF92BF92CF929A
:10142000DF92EF92FF920F931F93CF93DF93E90127
:101430008881843009F4C9C0C8F4823009F4ABC093
:1014400008F0ABC0813009F0D6C088E0AFDFE8E13A
:10145000F1E080E991E0B2E98B2EB1E09B2E24E926
:1014600031E00CEC11E040E050E009C0863009F4B6
:10147000B6C008F4AEC0813809F4B5C0BCC064ADD4
:1014800075AD7183608366AD77AD73836283BF0191
:10149000605C7F4FDB01AD90BC90B582A482BE0141
:1014A000640F751FDB011196EC90F12CA4E0EE0C9B
:1014B000FF1CAA95E1F7DC01ED92FC92DB0112968C
:1014C000EC90F12CB4E0EE0CFF1CBA95E1F7D401DE
:1014D000ED92FC92DB011396EC90F12CA4E0EE0C63
:1014E000FF1CAA95E1F7D901ED92FC92DB0114965D
:1014F000DC90BD2DBF70DB2EDC01ED90FC901197D0
:10150000ED28ED92FC92DB011596DC90BD2DBF70AD
:10151000DB2ED401ED90FC901197ED28ED92FC921A
:10152000DB011696FC90BF2DBF70FB2ED9016D918B
:101530007C9111976F296D937C93C080D180DC01E1
:10154000ED90FC90CE14DF0459F4C280D380D40116
:10155000ED90FC90CE14DF0419F4A616B70611F036
:10156000D8011C924A5F5F4F36960696B6E08B0E06
:10157000911C2A5F3F4F0F5F1F4F4C33510509F0FD
:101580007ECF9FB7F8948091D601877F8093D60154
:101590009FBF81E00DC082E00BC08A8190E0982F50
:1015A00088272981822B909305018093040184E090
:1015B000DF91CF911F910F91FF90EF90DF90CF902F
:1015C000BF90AF909F908F90F1CE8981809303015F
:1015D00012C0898180930001809301010CC0898130
:1015E0008093020108C0898180930601882311F04D
:1015F0005C9A01C05C98DF91CF911F910F91FF9091
:10160000EF90DF90CF90BF90AF909F908F90089514
:1016100087E091E0EEC9A1E21A2EAA1BBB1BFD01D7
:101620000DC0AA1FBB1FEE1FFF1FA217B307E407C1
:10163000F50720F0A21BB30BE40BF50B661F771F19
:10164000881F991F1A9469F76095709580959095F9
:101650009B01AC01BD01CF01089568940010E8948E
:10166000A0E0B0E0E5E3FBE01DC0EFEFE7F95901D2
:101670006A015E23550FEE08FE2C87019B01AC0129
:101680009E23990F660B762FCB0141D0CDB7DEB7E5
:10169000EAE024C02F923F924F925F926F927F9226
:1016A0008F929F92AF92BF92CF92DF92EF92FF9272
:1016B0000F931F93CF93DF93CDB7DEB7CA1BDB0B1E
:1016C0000FB6F894DEBF0FBECDBF09942A883988C3
:1016D00048885F846E847D848C849B84AA84B984CA
:1016E000C884DF80EE80FD800C811B81AA81B981D6
:1016F000CE0FD11D0FB6F894DEBF0FBECDBFED01EA
:101700000895EE0FFF1F0590F491E02D0994DF93EB
:10171000CF939F92A0E49A2E0024D001E001F00123
:1017200016950795F794E794D794C794B794A79420
:1017300048F41068A20FB31FC41FD51FE61FF71F80
:10174000081E191E220F331F441F551F661F771FC7
:10175000881F991F9A9421F79D01AE01BF01C00116
:1017600011249F90CF91DF910895FB01DC0104C00B
:101770008D910190801921F441505040C8F7881B89
:10178000990B0895FB01DC0102C001900D924150BC
:101790005040D8F70895DC0101C06D93415050408E
:0817A000E0F70895F894FFCF73
:1017A80001643280640001008108000001E4014006
:0817B800000000000000000029
:00000001FF
